S011000070726F796563746F322E737265636C
S11300000C9434000C9451000C9451000C94510045
S11300100C94FD030C9451000C9451000C94510069
S11300200C9451000C9451000C9451000C94510008
S11300300C9451000C9451000C9451000C945100F8
S11300400C9451000C9451000C9431010C94510007
S11300500C9451000C9451000C9451000C945100D8
S11300600C9451000C94510011241FBECFEFD8E022
S1130070DEBFCDBF11E0A0E0B1E0EEE9F2E102C0E5
S113008005900D92A230B107D9F721E0A2E0B1E0CA
S113009001C01D92A431B207E1F70E94C9040C9477
S11300A04D090C94000010927C0010927A00009785
S11300B031F4ECE7F0E080818064808307C001972D
S11300C029F4ECE7F0E08081806C80836115710590
S11300D031F4ECE7F0E080818062808308C0613015
S11300E0710529F4ECE7F0E080818F7D8083423054
S11300F0510531F4EAE7F0E080818160808335C006
S11301004430510531F4EAE7F0E080818260808375
S11301102CC04830510531F4EAE7F0E08081836077
S1130120808323C04031510531F4EAE7F0E0808157
S1130130846080831AC04032510531F4EAE7F0E06C
S113014080818560808311C04034510531F4EAE731
S1130150F0E080818660808308C04038510529F42E
S1130160EAE7F0E0808187608083EAE7F0E080815D
S11301708068808308959C01ECE7F0E09081907F93
S113018090832115310521F48081807F80833EC0D6
S11301902130310531F4ECE7F0E080818160808327
S11301A035C02230310531F4ECE7F0E08081826023
S11301B080832CC02330310531F4ECE7F0E08081FA
S11301C08360808323C02430310531F4ECE7F0E010
S11301D08081846080831AC02530310531F4ECE7D6
S11301E0F0E080818560808311C02630310531F4D0
S11301F0ECE7F0E080818660808308C02730310519
S113020029F4ECE7F0E0808187608083EAE7F0E09E
S113021080818064808380917A0086FDFCCFEAE748
S1130220F0E080818061808380917900089590E07E
S1130230C0970895E4E6E89F9001E99F300D1124EA
S1130240CB01880F991F660F771F660F771F660F04
S1130250771F680F791FC901860F971F840F951F99
S113026008951F920F920FB60F9211248F938091CD
S1130270C600809308018F910F900FBE0F901F90BE
S1130280189517B88FEF88B98AB9E8E6F0E080814D
S113029082608083ECE6F0E080818C608083089546
S11302A0CF92DF92EF92FF921F93CF93DF93162F9B
S11302B0EA01682F70E080E090E00E943C086B0146
S11302C07C01612F70E080E090E00E943E089B0179
S11302D0AC01C701B6010E949B076B017C01BE0102
S11302E080E090E00E943C08A70196010E94CA08A1
S11302F00E940D08CB01DF91CF911F91FF90EF90E9
S1130300DF90CF900895809101018430B1F484E0AE
S113031090E00E94BB00809305018091050148E2B2
S113032050E06FEF0E94500199270E94E8068091E7
S113033001018F5F8093010108958091010185304F
S1130340B1F485E090E00E94BB00809305018091A8
S1130350050148E250E06FEF0E94500199270E9486
S1130360ED06809101018F5F8093010108958091D2
S113037001018630B1F486E090E00E94BB008093D6
S113038005018091050148E250E06FEF0E945001A1
S113039099270E949507809101018F5F8093010145
S11303A00895809101018730B1F487E090E00E94C4
S11303B0BB00809305018091050148E250E06FEF96
S11303C00E94500199270E949807809101018F5F34
S11303D080930101089584E0809301010895809140
S11303E00001813009F03EC180910301813009F0A0
S11303F04AC084E090E00E94BB0080930501809194
S1130400050148E250E06FEF0E945001682F80E040
S113041090E00E943F0985E090E00E94BB00809339
S113042005018091050148E250E06FEF0E94500100
S1130430682F81E090E00E943F0986E090E00E94EE
S1130440BB00809305018091050148E250E06FEF05
S11304500E945001682F82E090E00E943F0987E0EB
S113046090E00E94BB00809305018091050148E261
S113047050E06FEF0E945001682F83E090E00E94EB
S11304803F091092030180910301823009F04AC0B0
S113049084E090E00E94BB008093050180910501F7
S11304A048E250E06FEF0E945001682F84E090E032
S11304B00E943F0985E090E00E94BB008093050103
S11304C08091050148E250E06FEF0E945001682FCF
S11304D085E090E00E943F0986E090E00E94BB0026
S11304E0809305018091050148E250E06FEF0E947E
S11304F05001682F86E090E00E943F0987E090E079
S11305000E94BB00809305018091050148E250E000
S11305106FEF0E945001682F87E090E00E943F092E
S11305201092030180910301833009F04AC084E0F2
S113053090E00E94BB00809305018091050148E290
S113054050E06FEF0E945001682F88E090E00E9415
S11305503F0985E090E00E94BB00809305018091F3
S1130560050148E250E06FEF0E945001682F89E0D6
S113057090E00E943F0986E090E00E94BB008093D7
S113058005018091050148E250E06FEF0E9450019F
S1130590682F8AE090E00E943F0987E090E00E9483
S11305A0BB00809305018091050148E250E06FEFA4
S11305B00E945001682F8BE090E00E943F09109246
S11305C0030180910301843009F04CC084E090E081
S11305D00E94BB00809305018091050148E250E030
S11305E06FEF0E945001682F8CE090E00E943F0959
S11305F085E090E00E94BB00809305018091050195
S113060048E250E06FEF0E945001682F8DE090E0C7
S11306100E943F0986E090E00E94BB0080930501A0
S11306208091050148E250E06FEF0E945001682F6D
S11306308EE090E00E943F0987E090E00E94BB00BA
S1130640809305018091050148E250E06FEF0E941C
S11306505001682F8FE090E00E943F09109203013F
S113066010920401089580910001823009F0C4C001
S1130670809104018230C1F118F4813041F0089571
S1130680833009F45EC0843009F488C0089580E0A2
S113069090E00E943709809302018091020190E06A
S11306A00E94E80681E090E00E94370980930201ED
S11306B08091020190E00E94ED0682E090E00E94A9
S11306C03709809302018091020190E00E9495070E
S11306D083E090E00E943709809302018091020137
S11306E090E00E949807089584E090E00E94370902
S11306F0809302018091020190E00E94E80685E067
S113070090E00E943709809302018091020190E0F9
S11307100E94ED0686E090E00E9437098093020172
S11307208091020190E00E94950787E090E00E948A
S11307303709809302018091020190E00E9498079A
S1130740089588E090E00E94370980930201809127
S1130750020190E00E94E80689E090E00E943709D7
S1130760809302018091020190E00E94ED068AE0EC
S113077090E00E943709809302018091020190E089
S11307800E9495078BE090E00E9437098093020154
S11307908091020190E00E94980708958CE090E017
S11307A00E943709809302018091020190E00E9427
S11307B0E8068DE090E00E94370980930201809161
S11307C0020190E00E94ED068EE090E00E9437095D
S11307D0809302018091020190E00E9495078FE0CE
S11307E090E00E943709809302018091020190E019
S11307F00E9498071092040108951F920F920FB659
S11308000F9211242F933F934F935F936F937F9392
S11308108F939F93AF93BF93EF93FF93339905C047
S1130820809100018F5F8093000132990DC0809107
S113083004018F5F8093040180910401809303017C
S11308400E94EF010E943303FF91EF91BF91AF919A
S11308509F918F917F916F915F914F913F912F91D4
S11308600F900FBE0F901F901895AF92BF92CF922A
S1130870DF92EF92FF920F931F938AB18E7F8AB912
S11308808AB182608AB91092C0006130710529F47E
S1130890E0ECF0E08081826080834130510529F4EE
S11308A0E0ECF0E0808181608083E1ECF0E0108294
S11308B08081806A80838081886180831092C200F5
S11308C02130310529F4E2ECF0E0808180648083FA
S11308D00130110531F4E2ECF0E080818062808324
S11308E008C00230110529F4E2ECF0E08081806355
S11308F0808382E0E816F10429F4E2ECF0E08081E0
S11309008860808387E0C816D104A9F02CF486E0BF
S1130910C816D10451F020C088E0C816D10489F06B
S113092089E0C816D10499F017C0E2ECF0E08081A8
S11309308260808311C0E2ECF0E080818460808377
S11309400BC0E2ECF0E080818660808305C0E2ECBD
S1130950F0E0808186608083B092C500A092C400DC
S11309601F910F91FF90EF90DF90CF90BF90AF90C9
S113097008959091C00095FFFCCF8093C600089520
S11309808091C0008823E4F78091C6008093080119
S11309900895F894E1E6F0E087E0808310820E94F5
S11309A0410140E850E060E070E080E090E00E94A7
S11309B053008BE990E09093070180930601209106
S11309C006013091070140E054E066E070E080E009
S11309D090E00E942D0680E090E00E94D70640E05F
S11309E054E063E070E080E090E00E94F20680E072
S11309F090E00E948407789480910001823091F005
S1130A0018F4813039F0F8CF833099F0843009F448
S1130A1020C1F2CF8BB18B7C8BB984E08BB90E945F
S1130A208301EACF8BB18B7C8BB98BB180628BB99C
S1130A30E3CF8BB18B7C8BB98BB180618BB90F2EDB
S1130A40F7E6AF2EB12CF02D6894CC24C3F8D12C4A
S1130A50EE24E394F12C00E010E020E030E040E0EC
S1130A6050E060E070E080E895E20E9435042FEFEA
S1130A7081EE94E0215080409040E1F700C00000F6
S1130A8081E30E94B9040E94C004809311010E9472
S1130A90C004809310010E94C004F82E80930B01BF
S1130AA0809111010E941701EC0190930D01809334
S1130AB00C01809110010E9417018C0190930A018E
S1130AC0809309018F2D0E94170190931301809345
S1130AD01201AC01B801CE010E941A0180930E01EB
S1130AE090930F0148E250E06FEF0E945001992764
S1130AF00E94E80682E30E94B9040E94C004809325
S1130B0011010E94C004809310010E94C004F82EB9
S1130B1080930B01809111010E941701EC019093C5
S1130B200D0180930C01809110010E9417018C012A
S1130B3090930A01809309018F2D0E9417019093CD
S1130B40130180931201AC01B801CE010E941A0175
S1130B5080930E0190930F0148E250E06FEF0E94E2
S1130B60500199270E94ED0683E30E94B9040E9474
S1130B70C004809311010E94C004809310010E945C
S1130B80C004F82E80930B01809111010E9417017B
S1130B90EC0190930D0180930C01809110010E944F
S1130BA017018C0190930A01809309018F2D0E94F3
S1130BB017019093130180931201AC01B801CE0187
S1130BC00E941A0180930E0190930F0148E250E0B5
S1130BD06FEF0E94500199270E94950784E30E94B9
S1130BE0B9040E94C004809311010E94C004809340
S1130BF010010E94C004F82E80930B018091110112
S1130C000E941701EC0190930D0180930C018091D7
S1130C1010010E9417018C0190930A01809309012D
S1130C208F2D0E9417019093130180931201AC0140
S1130C30B801CE010E941A0180930E0190930F0116
S1130C4048E250E06FEF0E94500199270E949807F4
S1130C50D3CE81E080930001CFCEF90134B132606C
S1130C6034B91092800010928100892B31F4A0E8ED
S1130C70B0E08C9180688C9305C0A0E8B0E08C91C2
S1130C80806C8C936115710559F4A0E8B0E08C91E7
S1130C9081608C93A1E8B0E08C9188608C9352C001
S1130CA06130710559F4A0E8B0E08C9182608C93B6
S1130CB0A1E8B0E08C9188608C9344C062307105E7
S1130CC059F4A0E8B0E08C9183608C93A1E8B0E083
S1130CD08C9188608C9336C06330710531F4A0E840
S1130CE0B0E08C9181608C932DC06430710531F437
S1130CF0A0E8B0E08C9182608C9324C065307105CB
S1130D0031F4A0E8B0E08C9183608C931BC0663012
S1130D10710559F4A0E8B0E08C9182608C93A1E84D
S1130D20B0E08C9188618C930DC06730710551F4EB
S1130D30A0E8B0E08C9182608C93A1E8B0E08C9143
S1130D4080618C9340345105E1F03CF44115510528
S1130D5061F04830510579F025C0411581E058070C
S1130D60B1F041155440C9F01DC0A1E8B0E08C9128
S1130D7081608C9317C0A1E8B0E08C9182608C9361
S1130D8011C0A1E8B0E08C9183608C930BC0A1E802
S1130D90B0E08C9184608C9305C0A1E8B0E08C91A4
S1130DA085608C93F0938700E0938600089524B1C6
S1130DB0246024B9892B31F4E0E8F0E0808180627A
S1130DC080830895E0E8F0E0808180638083089563
S1130DD09093890080938800089590938B0080936A
S1130DE08A00089524B1286024B91092B0001092AA
S1130DF0B100892B31F4E0EBF0E0808180688083DE
S1130E0005C0E0EBF0E08081806C80836130710587
S1130E1031F4E0EBF0E080818160808344C0623093
S1130E20710531F4E0EBF0E08081826080833BC0A7
S1130E306330710531F4E0EBF0E0808183608083FE
S1130E4032C06430710531F4E1EBF0E080818860F8
S1130E50808329C06530710559F4E0EBF0E08081AE
S1130E6081608083E1EBF0E08081886080831BC037
S1130E706630710559F4E0EBF0E080818260808394
S1130E80E1EBF0E08081886080830DC067307105FC
S1130E9051F4E0EBF0E0808183608083E1EBF0E0EB
S1130EA080818860808340345105E1F03CF4411531
S1130EB0510561F04830510579F00895411581E0FC
S1130EC05807B1F041155440C9F00895E1EBF0E042
S1130ED08081816080830895E1EBF0E0808182600D
S1130EE080830895E1EBF0E080818360808308953E
S1130EF0E1EBF0E08081846080830895E1EBF0E031
S1130F0080818760808308952AB128602AB9892B5B
S1130F1031F4E0EBF0E08081806280830895E0EBBF
S1130F20F0E080818063808308958093B300089506
S1130F308093B40008950E94AF070C9490080E9417
S1130F40890858F00E94820840F029F45F3F29F094
S1130F500C94790851110C94C4080C947F080E94D5
S1130F60A10868F39923B1F3552391F3951B550B0D
S1130F70BB27AA2762177307840738F09F5F5F4F68
S1130F80220F331F441FAA1FA9F335D00E2E3AF0A7
S1130F90E0E832D091505040E695001CCAF72BD0BF
S1130FA0FE2F29D0660F771F881FBB1F2617370710
S1130FB04807AB07B0E809F0BB0B802DBF01FF2742
S1130FC093585F4F3AF09E3F510578F00C9479089E
S1130FD00C94C4085F3FE4F3983ED4F38695779568
S1130FE06795B795F7959F5FC9F7880F911D9695FB
S1130FF0879597F90895E1E0660F771F881FBB1F57
S1131000621773078407BA0720F0621B730B840B03
S1131010BA0BEE1F88F7E09508950E94A90888F09E
S11310209F5798F0B92F9927B751B0F0E1F0660FA8
S1131030771F881F991F1AF0BA95C9F714C0B130E9
S113104091F00E94C308B1E008950C94C308672F7F
S1131050782F8827B85F39F0B93FCCF38695779518
S11310606795B395D9F73EF4909580957095619501
S11310707F4F8F4F9F4F0895E89409C097FB3EF42C
S113108090958095709561957F4F8F4F9F4F9923D1
S1131090A9F0F92F96E9BB279395F695879577954F
S11310A06795B795F111F8CFFAF4BB0F11F460FF0F
S11310B01BC06F5F7F4F8F4F9F4F16C0882311F067
S11310C096E911C0772321F09EE8872F762F05C07B
S11310D0662371F096E8862F70E060E02AF09A9516
S11310E0660F771F881FDAF7880F9695879597F90B
S11310F0089597F99F6780E870E060E008959FEF96
S113110080EC089500240A9416161706180609069A
S1131110089500240A941216130614060506089569
S1131120092E0394000C11F4882352F0BB0F40F4F1
S1131130BF2B11F460FF04C06F5F7F4F8F4F9F4F31
S1131140089557FD9058440F551F59F05F3F71F0B3
S11311504795880F97FB991F61F09F3F79F087951A
S11311600895121613061406551FF2CF4695F1DFA3
S113117008C0161617061806991FF1CF8695710533
S1131180610508940895E894BB2766277727CB0167
S113119097F908950E94DD080C9490080E94820833
S11311A038F00E94890820F0952311F00C947908F6
S11311B00C947F0811240C94C4080E94A10870F3B5
S11311C0959FC1F3950F50E0551F629FF001729FE8
S11311D0BB27F00DB11D639FAA27F00DB11DAA1FF7
S11311E0649F6627B00DA11D661F829F2227B00D44
S11311F0A11D621F739FB00DA11D621F839FA00DCF
S1131200611D221F749F3327A00D611D231F849F1E
S1131210600D211D822F762F6A2F11249F57504075
S11312209AF0F1F088234AF0EE0FFF1FBB1F661FF0
S1131230771F881F91505040A9F79E3F510580F0B9
S11312400C9479080C94C4085F3FE4F3983ED4F3FB
S1131250869577956795B795F795E7959F5FC1F75D
S1131260FE2B880F911D9695879597F90895F99906
S1131270FECF92BD81BDF89A992780B50895262F97
S1131280F999FECF1FBA92BD81BD20BD0FB6F89467
S1111290FA9AF99A0FBE01960895F894FFCFCA
S105129E010346
S9030000FC
